{
  "_format": "hh-sol-artifact-1",
  "contractName": "ScoreStorage",
  "sourceName": "contracts/ScoreStorage.sol",
  "abi": [
    {
      "anonymous": false,
      "inputs": [
        {
          "indexed": true,
          "internalType": "address",
          "name": "player",
          "type": "address"
        },
        {
          "indexed": false,
          "internalType": "string",
          "name": "playerName",
          "type": "string"
        },
        {
          "indexed": false,
          "internalType": "uint256",
          "name": "score",
          "type": "uint256"
        }
      ],
      "name": "ScoreSaved",
      "type": "event"
    },
    {
      "inputs": [
        {
          "internalType": "address",
          "name": "_player",
          "type": "address"
        }
      ],
      "name": "getScore",
      "outputs": [
        {
          "internalType": "string",
          "name": "",
          "type": "string"
        },
        {
          "internalType": "uint256",
          "name": "",
          "type": "uint256"
        }
      ],
      "stateMutability": "view",
      "type": "function"
    },
    {
      "inputs": [
        {
          "internalType": "string",
          "name": "_playerName",
          "type": "string"
        },
        {
          "internalType": "uint256",
          "name": "_score",
          "type": "uint256"
        }
      ],
      "name": "storeScore",
      "outputs": [],
      "stateMutability": "nonpayable",
      "type": "function"
    }
  ],
  "bytecode": "0x608060405234801561001057600080fd5b5061089b806100206000396000f3fe608060405234801561001057600080fd5b50600436106100365760003560e01c8063d47875d01461003b578063ee8c32a01461006c575b600080fd5b610055600480360381019061005091906102c4565b610088565b60405161006392919061039a565b60405180910390f35b6100866004803603810190610081919061052b565b610188565b005b60606000806000808573ffffffffffffffffffffffffffffffffffffffff1673ffffffffffffffffffffffffffffffffffffffff1681526020019081526020016000206040518060400160405290816000820180546100e6906105b6565b80601f0160208091040260200160405190810160405280929190818152602001828054610112906105b6565b801561015f5780601f106101345761010080835404028352916020019161015f565b820191906000526020600020905b81548152906001019060200180831161014257829003601f168201915b505050505081526020016001820154815250509050806000015181602001519250925050915091565b6040518060400160405280838152602001828152506000803373ffffffffffffffffffffffffffffffffffffffff1673ffffffffffffffffffffffffffffffffffffffff16815260200190815260200160002060008201518160000190816101f09190610793565b50602082015181600101559050503373ffffffffffffffffffffffffffffffffffffffff167fae568214e78cc59b9a3c1b6a533d9a02c8e8fb7537c20dbb21f55040a3565010838360405161024692919061039a565b60405180910390a25050565b6000604051905090565b600080fd5b600080fd5b600073ffffffffffffffffffffffffffffffffffffffff82169050919050565b600061029182610266565b9050919050565b6102a181610286565b81146102ac57600080fd5b50565b6000813590506102be81610298565b92915050565b6000602082840312156102da576102d961025c565b5b60006102e8848285016102af565b91505092915050565b600081519050919050565b600082825260208201905092915050565b60005b8381101561032b578082015181840152602081019050610310565b60008484015250505050565b6000601f19601f8301169050919050565b6000610353826102f1565b61035d81856102fc565b935061036d81856020860161030d565b61037681610337565b840191505092915050565b6000819050919050565b61039481610381565b82525050565b600060408201905081810360008301526103b48185610348565b90506103c3602083018461038b565b9392505050565b600080fd5b600080fd5b7f4e487b7100000000000000000000000000000000000000000000000000000000600052604160045260246000fd5b61040c82610337565b810181811067ffffffffffffffff8211171561042b5761042a6103d4565b5b80604052505050565b600061043e610252565b905061044a8282610403565b919050565b600067ffffffffffffffff82111561046a576104696103d4565b5b61047382610337565b9050602081019050919050565b82818337600083830152505050565b60006104a261049d8461044f565b610434565b9050828152602081018484840111156104be576104bd6103cf565b5b6104c9848285610480565b509392505050565b600082601f8301126104e6576104e56103ca565b5b81356104f684826020860161048f565b91505092915050565b61050881610381565b811461051357600080fd5b50565b600081359050610525816104ff565b92915050565b600080604083850312156105425761054161025c565b5b600083013567ffffffffffffffff8111156105605761055f610261565b5b61056c858286016104d1565b925050602061057d85828601610516565b9150509250929050565b7f4e487b7100000000000000000000000000000000000000000000000000000000600052602260045260246000fd5b600060028204905060018216806105ce57607f821691505b6020821081036105e1576105e0610587565b5b50919050565b60008190508160005260206000209050919050565b60006020601f8301049050919050565b600082821b905092915050565b6000600883026106497fffffffffffffffffffffffffffffffffffffffffffffffffffffffffffffffff8261060c565b610653868361060c565b95508019841693508086168417925050509392505050565b6000819050919050565b600061069061068b61068684610381565b61066b565b610381565b9050919050565b6000819050919050565b6106aa83610675565b6106be6106b682610697565b848454610619565b825550505050565b600090565b6106d36106c6565b6106de8184846106a1565b505050565b5b81811015610702576106f76000826106cb565b6001810190506106e4565b5050565b601f82111561074757610718816105e7565b610721846105fc565b81016020851015610730578190505b61074461073c856105fc565b8301826106e3565b50505b505050565b600082821c905092915050565b600061076a6000198460080261074c565b1980831691505092915050565b60006107838383610759565b9150826002028217905092915050565b61079c826102f1565b67ffffffffffffffff8111156107b5576107b46103d4565b5b6107bf82546105b6565b6107ca828285610706565b600060209050601f8311600181146107fd57600084156107eb578287015190505b6107f58582610777565b86555061085d565b601f19841661080b866105e7565b60005b828110156108335784890151825560018201915060208501945060208101905061080e565b86831015610850578489015161084c601f891682610759565b8355505b6001600288020188555050505b50505050505056fea26469706673582212204d34c4ddc4aaedbb999f6c06ed1da3c01989811371045c56727d0fea1d82b4fd64736f6c63430008180033",
  "linkReferences": {},
  "deployedLinkReferences": {}
}